:020000040000FA
:060000000A128A11E42F30
:100C3A0008340434023401348316031789018316F5
:100C4A00031387018312031387010800392EC73063
:100C5A00F2002F2EF20B2E2E322E332E0130F002FE
:100C6A000030031CF103F10270087104031D3E2ECB
:100C7A003F2E2C2E08000130F3000030F400013022
:100C8A00F5000030F6006430F9000030FA00F70190
:100C9A00F801C52F0130F7000030F800C52F0A12FD
:100CAA008A1121260A128A110230F7000030F80050
:100CBA00C52F73087404031D632E642E732E7503E7
:100CCA007604031D692E6A2E6F2E0630F700003057
:100CDA00F800732E0330F7000030F8007303740431
:100CEA00031D782E792EC52F75037604031D7E2EDB
:100CFA007F2E842E0530F7000030F800C52F04300F
:100D0A00F7000030F800C52F08308312031387005C
:100D1A007A08F1007908F0000A128A112B260A12C1
:100D2A008A1104308312031387007A08F1007908C4
:100D3A00F0000A128A112B260A128A110230831233
:100D4A00031387007A08F1007908F0000A128A1161
:100D5A002B260A128A1101308312031387007A089C
:100D6A00F1007908F0000A128A112B260A128A1158
:100D7A00892E01308312031387007A08F10079085B
:100D8A00F0000A128A112B260A128A1102308312E3
:100D9A00031387007A08F1007908F0000A128A1111
:100DAA002B260A128A1104308312031387007A0849
:100DBA00F1007908F0000A128A112B260A128A1108
:100DCA0008308312031387007A08F1007908F000CB
:100DDA000A128A112B260A128A11BE2E0830831291
:100DEA00031387007A08F1007908F0000A128A11C1
:100DFA002B260A128A1109308312031387007A08F4
:100E0A00F1007908F0000A128A112B260A128A11B7
:100E1A0001308312031387007A08F1007908F00081
:100E2A000A128A112B260A128A110330831203131B
:100E3A0087007A08F1007908F0000A128A112B2635
:100E4A000A128A1102308312031387007A08F1000A
:100E5A007908F0000A128A112B260A128A11063022
:100E6A008312031387007A08F1007908F0000A1246
:100E7A008A112B260A128A1104308312031387005F
:100E8A007A08F1007908F0000A128A112B260A1250
:100E9A008A110C308312031387007A08F10079084B
:100EAA00F0000A128A112B260A128A11F32E0C302C
:100EBA008312031387007A08F1007908F0000A12F6
:100ECA008A112B260A128A1104308312031387000F
:100EDA007A08F1007908F0000A128A112B260A1200
:100EEA008A1106308312031387007A08F100790801
:100EFA00F0000A128A112B260A128A110230831272
:100F0A00031387007A08F1007908F0000A128A119F
:100F1A002B260A128A1103308312031387007A08D8
:100F2A00F1007908F0000A128A112B260A128A1196
:100F3A0001308312031387007A08F1007908F00060
:100F4A000A128A112B260A128A11093083120313F4
:100F5A0087007A08F1007908F0000A128A112B2614
:100F6A000A128A1108308312031387007A08F100E3
:100F7A007908F0000A128A112B260A128A115C2FAC
:100F8A007808003A0319CA2FC52F7708003A0319BF
:100F9A004F2E013A0319542E033A03195E2E013AD1
:100FAA000319892E073A0319BE2E013A0319F32EA3
:100FBA00033A03195C2FC52F0A128A1100280A1254
:100FCA008A111D260A128A11A0000A128A111E26E7
:100FDA000A128A11A1000A128A111F260A128A11FC
:100FEA00A2000A128A1120260A128A11A30083017A
:060FFA000A128A11402ECC
:04400E00D420FF3F7C
:00000001FF
